:100000000C9463000C948B000C948B000C948B006C
:100010000C948B000C948B000C948B000C948B0034
:100020000C948B000C948B000C948B000C948B0024
:100030000C948B000C948B000C948B000C948B0014
:100040000C9431040C948B000C94FF030C94D90392
:100050000C948B000C948B000C948B000C948B00F4
:100060000C948B000C948B0000000008000201002F
:100070000003040700000000000000000A0B0C0D44
:100080000E0F0001020304050000000025002800F7
:100090002B0000000000240027002A0004040404B0
:1000A0000404040402020202020203030303030322
:1000B00001020408102040800102040810200102FF
:1000C000040810207B0411241FBECFEFD8E0DEBF50
:1000D000CDBF22E0A0E5B1E001C01D92AC31B20776
:1000E000E1F711E0A0E0B1E0EEE5F0E102C005903B
:1000F0000D92A035B107D9F710E0C3E6D0E004C0F7
:100100002197FE010E942708C236D107C9F70E9435
:10011000CF040C942D080C94000090E0FC01E055F5
:10012000FF4F249184569F4FFC018491882399F0BE
:1001300090E0880F991FFC01EE56FF4FA591B491F6
:10014000FC01E857FF4F859194918FB7F894EC919B
:10015000E22BEC938FBF0895AF92BF92CF92DF92C4
:10016000EF92FF920F931F93CF93DF936C017B016C
:100170008B01040F151FEB015E01AE18BF08C017FD
:10018000D10759F06991D601ED91FC910190F08170
:10019000E02DC6010995892B79F7C501DF91CF9133
:1001A0001F910F91FF90EF90DF90CF90BF90AF9095
:1001B0000895FC01538D448D252F30E0842F90E06D
:1001C000821B930B541710F0CF9608950197089552
:1001D000FC01918D828D981761F0A28DAE0FBF2F1B
:1001E000B11D5D968C91928D9F5F9F73928F90E071
:1001F00008958FEF9FEF0895FC01918D828D9817E0
:1002000031F0828DE80FF11D858D90E008958FEF1C
:100210009FEF0895FC01918D228D892F90E0805CE5
:100220009F4F821B91098F73992708958EE591E066
:100230000E940A0121E0892B09F420E0822F089511
:1002400080E090E0892B29F00E94160181110C9426
:1002500000000895FC01A48DA80FB92FB11DA35A69
:10026000BF4F2C91848D90E001968F739927848FD6
:10027000A689B7892C93A089B1898C9183708064F9
:100280008C93938D848D981306C00288F389E02D9A
:1002900080818F7D80830895EF92FF920F931F934B
:1002A000CF93DF93EC0181E0888F9B8D8C8D981329
:1002B0001AC0E889F989808185FF15C09FB7F89435
:1002C000EE89FF896083E889F98980818370806481
:1002D00080839FBF81E090E0DF91CF911F910F91CC
:1002E000FF90EF900895F62E0B8D10E00F5F1F4FDB
:1002F0000F731127E02E8C8D8E110CC00FB607FCEA
:10030000FACFE889F989808185FFF5CFCE010E9477
:100310002A01F1CFEB8DEC0FFD2FF11DE35AFF4FBA
:10032000F0829FB7F8940B8FEA89FB898081806205
:10033000CFCFCF93DF93EC01888D8823B9F0AA89C2
:10034000BB89E889F9898C9185FD03C0808186FD90
:100350000DC00FB607FCF7CF8C9185FFF2CF8081DF
:1003600085FFEDCFCE010E942A01E9CFDF91CF9129
:10037000089590E0FC01E859FF4F2491FC01E055FD
:10038000FF4F3491FC01E456FF4FE491EE23C9F096
:10039000222339F0233001F1A8F4213019F1223061
:1003A00029F1F0E0EE0FFF1FE857FF4FA591B49140
:1003B0008FB7F894EC91611126C030953E233C93A1
:1003C0008FBF08952730A9F02830C9F0243049F7AD
:1003D000809180008F7D03C0809180008F77809313
:1003E0008000DFCF84B58F7784BDDBCF84B58F7D70
:1003F000FBCF8091B0008F778093B000D2CF8091F7
:10040000B0008F7DF9CF3E2BDACF682F80910002AC
:100410000E94B901809118029091190282309105D1
:1004200038F0880F991F880F991F05970197F1F7EA
:10043000089581E00C9405021F93CF93DF93182F4A
:10044000EB010E948D00209739F460E0812FDF914D
:10045000CF911F910C94B901CF3FD10511F461E008
:10046000F5CFE12FF0E0E859FF4FE491E33031F1AF
:1004700040F4E130B1F0E230E1F0C038D1057CF772
:10048000E4CFE73029F1E83059F1E430B1F7809159
:100490008000806280938000D0938B00C0938A009C
:1004A00004C084B5806884BDC7BDDF91CF911F9122
:1004B000089584B5806284BDC8BDF7CF8091800067
:1004C000806880938000D0938900C0938800EDCF2E
:1004D0008091B00080688093B000C093B300E5CFF6
:1004E0008091B00080628093B000C093B400DDCFF3
:1004F0003FB7F8948091550190915601A091570112
:10050000B091580126B5A89B05C02F3F19F0019660
:10051000A11DB11D3FBFBA2FA92F982F8827BC015D
:10052000CD01620F711D811D911D42E0660F771F85
:10053000881F991F4A95D1F708958EBD00000DB40C
:1005400007FEFDCF8EB508950F931F930091020211
:1005500010910302209104023091050240E052E123
:100560006AE770E080E0041715072607370740F4B4
:1005700076956795579547958F5F8630A1F787E009
:10058000982F906A9695809581709CBD8DBD80E076
:100590001F910F910C940502CF93C82F0E94A402C3
:1005A0008C2F80620E949D0280930602CF910C9452
:1005B0001902CF93C82F0E94A4028C2F0E949D0283
:1005C000809306028FEF0E949D02C82F0E9419029D
:1005D0008C2FCF910895FF920F931F93CF93DF93AA
:1005E000C82FF62E072F142F0E94A4028C2F806292
:1005F0000E949D0280930602CF2DD02F115020F033
:1006000089910E949D02FACFDF91CF911F910F91A6
:10061000FF900C9419020E94A40280E50E949D02A2
:100620008093060283E70E949D020C941902CF93E7
:10063000DF93D82FC62F0E94A4028D2F80620E94C4
:100640009D02809306028C2F0E949D02DF91CF9124
:100650000C94190260910D0261FD0AC06260609302
:100660000D0280E00E9417038BE19EE40197F1F7F1
:100670000895FC0101900020E9F73197AF01481B74
:10068000590BBC018EE591E00C94AC008F929F92C7
:10069000AF92BF92CF92DF92EF92FF920F931F9390
:1006A000CF93DF93CDB7DEB7A1970FB6F894DEBF37
:1006B0000FBECDBF6C01990FEE08FF08F7FE47C0D3
:1006C0006DE28EE591E00E944C018C0122273327D8
:1006D000A9012C193D094E095F0919A2CE01819685
:1006E0007C019AE0892E912CA12CB12CCA01B90170
:1006F000A50194010E940508605DF70162937F01E6
:10070000211531054105510589F790E080E03097CA
:1007100019F0CF010E943903080F191F82E191E0FF
:100720000E943903800F911FA1960FB6F894DEBF87
:100730000FBECDBFDF91CF911F910F91FF90EF9032
:10074000DF90CF90BF90AF909F908F900895A701BA
:10075000960119A28E010F5D1F4F8AE0C82ED12C81
:10076000E12CF12CCA01B901A70196010E940508EC
:10077000605DF80162938F01211531054105510536
:1007800089F7309729F0CF010E9439038C01C6CF39
:1007900010E000E0C3CFCF93DF930E943903EC0158
:1007A00082E191E00E9439038C0F9D1FDF91CF9170
:1007B00008951F920F920FB60F9211242F933F931B
:1007C0004F935F936F937F938F939F93AF93BF9359
:1007D000EF93FF938EE591E00E942A01FF91EF9144
:1007E000BF91AF919F918F917F916F915F914F9149
:1007F0003F912F910F900FBE0F901F9018951F9251
:100800000F920FB60F9211242F938F939F93EF9314
:10081000FF93E0916E01F0916F018081E09174018E
:10082000F091750182FD1BC09081809177018F5FEF
:100830008F7320917801821741F0E0917701F0E009
:10084000E25AFE4F958F80937701FF91EF919F9130
:100850008F912F910F900FBE0F901F901895808150
:10086000F4CF1F920F920FB60F9211242F933F9344
:100870008F939F93AF93BF938091510190915201B9
:10088000A0915301B09154013091500123E0230F06
:100890002D3758F50196A11DB11D2093500180936D
:1008A000510190935201A0935301B0935401809150
:1008B000550190915601A0915701B09158010196B0
:1008C000A11DB11D8093550190935601A09357012E
:1008D000B0935801BF91AF919F918F913F912F910C
:1008E0000F900FBE0F901F90189526E8230F0296C9
:1008F000A11DB11DD2CFEEE5F1E01382128288EE88
:1009000093E0A0E0B0E084839583A683B78384E07E
:1009100091E09183808385EC90E09587848784ECD7
:1009200090E09787868780EC90E0918B808B81ECBC
:1009300090E0938B828B82EC90E0958B848B86EC9D
:1009400090E0978B868B118E128E138E148EECEFA7
:10095000F1E089E090E0938382838AE090E09583E0
:10096000848380E896E9A8E9B0E086839783A0872E
:10097000B18780E28387128A138A85E0858B81E0C4
:10098000868B85E090E0A0E0B0E0848F958FA68F05
:10099000B78F8BEF91E09183808314860895CF9376
:1009A000DF93CDB7DEB728970FB6F894DEBF0FBE42
:1009B000CDBF789484B5826084BD84B5816084BDE8
:1009C00085B5826085BD85B5816085BD80916E00ED
:1009D000816080936E00109281008091810082601E
:1009E000809381008091810081608093810080915B
:1009F00080008160809380008091B100846080934A
:100A0000B1008091B00081608093B00080917A0045
:100A1000846080937A0080917A00826080937A006B
:100A200080917A00816080937A0080917A0080685A
:100A300080937A001092C100E0916E01F0916F01F5
:100A400082E08083E0916A01F0916B011082E09175
:100A50006C01F0916D018FEC808310927601E09132
:100A60007201F091730186E08083E0917001F09152
:100A70007101808180618083E0917001F09171014A
:100A8000808188608083E0917001F09171018081A4
:100A900080688083E0917001F091710180818F7D89
:100AA00080831FB7F89480915901811124C0E6EA30
:100AB000F0E08491EAEBF0E09491E82FF0E0EE0FA3
:100AC000FF1FEE56FF4FA591B491EC91E92321F45D
:100AD00061E08AE00E94B9018AE00E948D008CB535
:100AE00080618CBD8CB580648CBD8DE00E948D00D2
:100AF0008BE00E948D00809159018F5F8093590196
:100B00001FBF8091FE019091FF018F3F980709F46C
:100B1000ADC020910002309101022F3F320709F44D
:100B2000A5C08217930731F00E948D0080910002CA
:100B30000E948D008091FE019091FF0120910002A2
:100B4000309101028217930719F060E00E94B90109
:100B500081E00E9405020E9478026B017C0145E061
:100B6000842E912CA12CB12C0E9478026C197D0945
:100B70008E099F09683E734081059105A8F381E0C5
:100B8000881A9108A108B108E8EECE0EE3E0DE1E57
:100B9000E11CF11C81149104A104B10429F76FE553
:100BA00084E00E94170385E590E0A0E0B0E0809328
:100BB000140290931502A0931602B093170267E0F7
:100BC00086E00E9417038DE10E94D902182F0E942F
:100BD0000B038DE10E94D90291E0181390E09093ED
:100BE0000E02882341F0181302C00E940B0360E03C
:100BF0008DE10E9417031092100260E08CE10E94C8
:100C00001703109212026FE381E00E94170363E062
:100C100082E00E94170380E28093070211E1609155
:100C20000702812F0E9417031F5F1731C1F763E08E
:100C300083E00E94170385E0809311026CE40E9418
:100C4000170360E787E00E94170382EE0E94CC0240
:100C500081EE0E94CC026CE080E00E94170380E0ED
:100C60000E94D90280930D020E942A036FE381E063
:100C70000E94170386E00E94D90245E550E060E03B
:100C800070E0409314025093150260931602709323
:100C90001702682F677D86E00E94170386E00E9496
:100CA000D9026AE085E00E94170381EE898380EF14
:100CB0008A838B8388EE8C838D831E821F821886A5
:100CC000EDE7F0E0849140911102BE016F5F7F4F2C
:100CD0000E94EB0282E00E94D902E3E8F0E0E49196
:100CE00061E070E001C0660FEA95EAF7682B82E0E8
:100CF0000E9417030E942A0360910D0261606093B5
:100D00000D0280E00E94170360E787E00E9417034E
:100D10008091FE019091FF0120910002309101022B
:100D20008217930719F061E00E94B90180910F02C8
:100D3000882309F44AC04091110268E072E08AE019
:100D40000E94EB0285E00E948D0083E00E948D00EE
:100D500084E00E948D0086E00E948D0087E00E9462
:100D60008D0088E00E948D0030E0E32E30E0F32E0D
:100D70008FEF0E94CC028091060290E095958795B6
:100D80008770863008F035C18091120210E004E0CF
:100D9000811107C010910702012F153008F004E0FF
:100DA000101B0E94A40281E60E949D02809306020D
:100DB0008AE5C82E81E0D82E0150E0F08FEF0E9426
:100DC0009D02F60181936F01F7CF82E00E94D90264
:100DD000E2E8F0E0E49121E030E001C0220FEA9582
:100DE000EAF72095622F682382E00E941703109291
:100DF0000F02A8CF115020F08FEF0E949D02FACF72
:100E00000E94190260E487E00E94170385E191E0E7
:100E10000E94390380915A0190915B010E94460320
:100E200089E191E00E94390380915C0190915D011C
:100E30000E94460380915A0190915B018D37914049
:100E4000CCF08DE191E00E94CB0364E170E083E09F
:100E50000E941C0260E084E00E94B90161E086E02B
:100E60000E94B90160E087E00E94B90161E088E07A
:100E70000E94B90180915A0190915B0186339140A3
:100E8000F4F486E291E00E94CB0364E170E085E037
:100E90000E941C0264E170E083E00E941C0261E099
:100EA00084E00E94B90160E086E00E94B90161E03F
:100EB00087E00E94B90160E088E00E94B90180915A
:100EC0005C0190915D01853B9105F4F082E391E036
:100ED0000E94CB0364E170E085E00E941C0264E1A3
:100EE00070E083E00E941C0260E084E00E94B9018F
:100EF00061E086E00E94B90161E087E00E94B901EB
:100F000060E088E00E94B90180915C0190915D01F0
:100F10008E369105E4F582E391E00E94CB0364E113
:100F200070E085E00E941C0264E170E083E00E94B2
:100F30001C0260E084E00E94B90161E086E00E944A
:100F4000B90161E087E00E94B90160E088E00E9499
:100F5000B9018EE391E00E94CB0364E170E085E08B
:100F60000E941C0264E170E083E00E941C0261E0C8
:100F700084E00E94B90160E086E00E94B90160E06F
:100F800087E00E94B90161E088E00E94B901809188
:100F90005A0190915B018B5491404D9750F580918F
:100FA0005C0190915D01835891094D9710F589E49A
:100FB00091E00E94CB0370E060E085E00E941C029B
:100FC00070E060E083E00E941C0260E084E00E9428
:100FD000B90160E084E00E94B90160E086E00E940F
:100FE000B90160E087E00E94B90160E088E00E94FA
:100FF000B901E114F10409F4BBCE0E941601882363
:1010000009F4B6CE0E940000B3CEA1E21A2EAA1BAC
:10101000BB1BFD010DC0AA1FBB1FEE1FFF1FA217A8
:10102000B307E407F50720F0A21BB30BE40BF50BA5
:10103000661F771F881F991F1A9469F7609570952E
:10104000809590959B01AC01BD01CF010895EE0FF5
:0E105000FF1F0590F491E02D0994F894FFCF56
:10105E00000000004C01AC00D90099010A01E80023
:10106E00FC000D0A00582D2D00592D2D00C491693C
:10107E00206CC3AA6E00C49169207875E1BB916E95
:10108E00670072E1BABD207068E1BAA3690072E12F
:10109E00BABD207472C3A1690064E1BBAB6E670078
:00000001FF
